:0400000007EF00F016
:100008005C82EEED0EF038EF11F0AA0EBB6F94EFA4
:1000180005F0250ED119D8B40AD0A6C0D9FFA7C0BB
:10002800DAFFD1C0DFFFA64BA72B94EF05F0000E37
:10003800CE6F000ECD6F000EC96F000EC86F03D0D3
:10004800C885A84BA92BA8C0F6FFA9C0F7FF0800D0
:10005800F550300AD8B4F4D7A8C0F6FFA9C0F7FF06
:100068000800F55079EC15F0D8A034D0000E000146
:10007800CE6F000ECD6FCDC024F0CEC025F0000E9F
:10008800276E0A0E266E0CEC15F024C0CDF025C0A4
:10009800CEF0D00E0001B06FFF0EB16FA8C0F6FF12
:1000A800A9C0F7FF0800F550B26FB36BB051B22783
:1000B800B151B323B251CD27B351CE23A84BA92BAD
:1000C800A8C0F6FFA9C0F7FF0800F55079EC15F0B5
:1000D800D8B0D1D7A8C0F6FFA9C0F7FF0800F550DF
:1000E8002E0AD8A439D00001C98DA84BA92B000E1F
:1000F800D06F000ECF6F25D0CFC024F0D0C025F030
:10010800000E276E0A0E266E0CEC15F024C0CFF0F8
:1001180025C0D0F0D00E0001B06FFF0EB16FA8C09F
:10012800F6FFA9C0F7FF0800F550B26FB36BB051E6
:10013800B227B151B323B251CF27B351D023A84B23
:10014800A92BA8C0F6FFA9C0F7FF0800F55079EC65
:1001580015F0D8A096D0D0D7000E0001D06F000EB1
:10016800CF6FC9898ED0C985A9D0BB51D96EDA6A3B
:10017800DECFB9F0DDCFBAF0020EBB27B951BA1104
:10018800D8A404D0E30EB96FFF0EBA6F000EBD6F8E
:10019800000EBC6F03D00001BC4BBD2BBC51B92570
:1001A800B06FBD51BA21B16FB0C0F6FFB1C0F7FF53
:1001B800000EF86E0F0EF76403D00800F55005D056
:1001C800F6CFE1FFF7CFE2FFE7500009D8A4E3D765
:1001D8000001CF51D011D8B40ED0BC51CF5DD05151
:1001E800800AB06FBD51800AB059D8B004D0CFC0D2
:1001F800BCF0D0C0BDF0CD51BC5DCE51BD59D8B01A
:1002080005D0BC51CD5FBD51CE5B0DD0000ECE6F79
:10021800000ECD6F08D0A6C0D9FFA7C0DAFF200E08
:10022800DF6EA64BA72BCD07D8A0CE07CD29F3E1CB
:10023800CE29D8B41CD0EFD7B9C0F6FFBAC0F7FFA3
:10024800000EF86EA6C0D9FFA7C0DAFF0F0EF7643C
:1002580003D00800F55005D0F6CFE1FFF7CFE2FF55
:10026800E750DF6E0001B94BBA2BA64BA72BBC0792
:10027800D8A0BD07BC29E0E1BD29D8B494EF05F0AA
:10028800DBD7A8C0F6FFA9C0F7FF0001A84BA92B30
:100298000800F5CFD1F0D151000AD8B4A1EF05F08C
:1002A800640AD8B40BD0020AD8B45DD70F0AD8B400
:1002B80005D01A0AD8B459D794EF05F0070EC91516
:1002C800D8B408D3C9A904D0000ED06F060ECF6FDA
:1002D800BB51D96EDA6ADECFCAF0DECFCBF0DDCF04
:1002E800CCF0030EBB27CCAF10D0CAC024F0CBC0D3
:1002F80025F0CCC026F032EC15F024C0CAF025C099
:10030800CBF026C0CCF0030EC813000EC76F000E4A
:10031800C66FCA51CB11CC11D8B485D0820EB06F3C
:10032800FF0EB16FCAC0B2F0CBC0B3F0CCC0B4F00E
:10033800CDC0B5F0100E05D0D890B533B433B33373
:10034800B233E82EF9D7B251B025C66F000EB121ED
:10035800C76FC607D8A0C707C6C024F0C7C025F016
:10036800000E276E030E266E0CEC15F024C0C6F0A6
:1003780025C0C7F0C6C02AF0C7C02BF0000E2D6EEE
:100388000A0E2C6E40EC10F02AC0C6F02BC0C7F045
:100398000001C7AF03D0C607D8A0C707C6510008D9
:1003A800A8EC05F080C0BEF081C0BFF082C0C0F0EC
:1003B800BEC032F0BFC033F0C0C034F0CAC035F0A0
:1003C800CBC036F0CCC037F01CEC0DF032C0BEF01C
:1003D80033C0BFF034C0C0F0BEC09DF0BFC09EF0B7
:1003E800C0C09FF0000E0001A06F800EA16F3F0EED
:1003F800A26FC3EC10F0D8B004D0C607D8A0C707C6
:1004080012D0BEC09DF0BFC09EF0C0C09FF0000ECD
:10041800A06F200EA16F410EA26FC3EC10F0D8A000
:1004280002D0C64BC72BD0BF06D0D0511BE10D0E52
:10043800CF5DD8B017D0CAC08BF0CBC08CF0CCC081
:100448008DF0CF51F9EC09F080C08EF081C08FF0AB
:1004580082C090F0F4EC0AF08BC0CAF08CC0CBF0EC
:100468008DC0CCF00001C7BF06D0C7511EE10A0EEF
:10047800C65DD8B01AD0CA51CB11CC11D8B452D05D
:10048800CAC087F0CBC088F0CCC089F083EC0EF0EE
:100498008751881189118A11D8B4C7BF43D0C75171
:1004A80004E1020EC65DD8A03DD0BEC09DF0BFC01D
:1004B8009EF0C0C09FF0700EA06F890EA16F400E15
:1004C800A26FC3EC10F0D8B002D0F70E01D0F80E2E
:1004D800C627FF0EC723C651A8EC05F080C0BEF0A2
:1004E80081C0BFF082C0C0F0CAC024F0CBC025F0E4
:1004F800CCC026F0BEC027F0BFC028F0C0C029F08D
:100508009DEC0CF024C0C2F025C0C3F026C0C4F096
:1005180027C0C5F0000E0001CA6F000ECB6F000E99
:10052800CC6F33D0CAC087F0CBC088F0CCC089F07C
:1005380083EC0EF087C0C2F088C0C3F089C0C4F055
:100548008AC0C5F0CAC097F0CBC098F0CCC099F06B
:10055800C2C02CF0C3C02DF0C4C02EF0C5C02FF00F
:100568003FEC12F02CC09AF02DC09BF02EC09CF0EE
:10057800D0EC13F097C0CAF098C0CBF099C0CCF07B
:10058800000E0001C76F000EC66F010ED16FD1516A
:10059800040D330EF324F66EFF0EF420F76E0900F7
:1005A800F550C25D0900F550C3590900F550C4590A
:1005B8000900F550C559D8A005D0D12B0A0ED1197C
:1005C800D8A4E5D7D151CF25B06F000ED021B16F97
:1005D800C651B027C751B123B051CD5FB151CE5BE1
:1005E800CF51D011D8B403D0CD07D8A0CE07C8C0FA
:1005F800B0F0030EB017D8B403D0CD07D8A0CE07FB
:10060800C8A52DD0C8C0B0F0030EB017D8B414D008
:10061800A6C0D9FFA7C0DAFF2D0EDF6EA64BA72B09
:100628000BD0A6C0D9FFA7C0DAFF300EDF6EA64BED
:10063800A72BCD07D8A0CE07CEBF6DD0CE51F1E104
:10064800CD05D8A068D0EDD7A6C0D9FFA7C0DAFFDE
:10065800200EDF6EA64BA72BCD07D8A0CE07CEBFA6
:1006680005D0CE51F1E1CD05D8B0EED7C8C0B0F075
:10067800030EB017D8B44FD0A6C0D9FFA7C0DAFF71
:100688002D0E46D0C2C024F0C3C025F0C4C026F049
:10069800C5C027F0D151040D330EF324F66EFF0EBA
:1006A800F420F76E0900F5CF28F00900F5CF29F0FE
:1006B8000900F5CF2AF00A00F5CF2BF082EC10F0F4
:1006C80024C0BEF025C0BFF026C0C0F027C0C1F0CE
:1006D800BEC031F0BFC032F0C0C033F0C1C034F08A
:1006E8000A0E356E000E366E000E376E000E386E2E
:1006F800DDEC11F031C0BEF032C0BFF033C0C0F045
:1007080034C0C1F0BE51300FA6C0D9FFA7C0DAFF70
:10071800DF6EA64BA72BD107D129D8B40CD0B2D7FE
:10072800A6C0D9FFA7C0DAFF300EDF6EA64BA72BF5
:10073800C607D8A0C707C7BF05D0C751F1E1C6058E
:10074800D8B0EED7D0BF09D0D05104E1090ECF5DA3
:10075800D8A003D0080ED16F02D0CFC0D1F0D151AC
:10076800CF5F000ED05BD151D8B408D0A6C0D9FF56
:10077800A7C0DAFF2E0EDF6EA64BA72BD151A8EC2F
:1007880005F080C0B6F081C0B7F082C0B8F0CAC02A
:1007980035F0CBC036F0CCC037F0B6C032F0B7C0B9
:1007A80033F0B8C034F01CEC0DF032C087F033C021
:1007B80088F034C089F083EC0EF087C0C2F088C09E
:1007C800C3F089C0C4F08AC0C5F06FD0C2C024F09D
:1007D800C3C025F0C4C026F0C5C027F0D151040D10
:1007E800330EF324F66EFF0EF420F76E0900F5CFF2
:1007F80028F00900F5CF29F00900F5CF2AF00A0002
:10080800F5CF2BF082EC10F024C0BEF025C0BFF06D
:1008180026C0C0F027C0C1F0BEC031F0BFC032F062
:10082800C0C033F0C1C034F00A0E356E000E366E0B
:10083800000E376E000E386EDDEC11F031C0BEF0E0
:1008480032C0BFF033C0C0F034C0C1F0BE51300F69
:10085800A6C0D9FFA7C0DAFFDF6EA64BA72BC2C080
:1008680031F0C3C032F0C4C033F0C5C034F0D15148
:10087800040D330EF324F66EFF0EF420F76E090014
:10088800F5CF35F00900F5CF36F00900F5CF37F090
:100898000A00F5CF38F0DDEC11F031C0C2F032C0FB
:1008A800C3F033C0C4F034C0C5F0D107D129D8B4DF
:1008B8000CD08CD7A6C0D9FFA7C0DAFF300EDF6EE8
:1008C800A64BA72BCF07D8A0D007CF51D011D8B4AB
:1008D80027D1F0D7BB51D96EDA6ADECFC2F0DDCFAF
:1008E800C3F0000EC3BFFF0EC46FC56F020EBB2757
:1008F800C5AF0AD0030EC813C51FC41FC31FC26DDE
:10090800000EC323C423C523CF51D011D8A408D0C7
:10091800C251C311C411C511D8A402D0CF4BD02BDA
:10092800010ED16FD151040D330EF324F66EFF0E74
:10093800F420F76E0900F550C25D0900F550C3595F
:100948000900F550C4590900F550C559D8A005D07B
:10095800D12B0A0ED119D8A4E5D7D151B06FB16BFC
:10096800CF51B05DB151800AB26FD051800AB259EF
:10097800D8B003D0CFC0D1F010D0D151B06FB16B87
:10098800B051CF5DD051800AB26FB151800AB259CF
:10099800D8B003D0D1C0CFF0D06BCD51CE11D8B4E0
:1009A80009D0C8C0B0F0030EB017D8B403D0CD0733
:1009B800D8A0CE07C9AD13D0CD51CF5DD051800A94
:1009C800B06FCE51800AB059D8B005D0CF51CD5FA5
:1009D800D051CE5B04D0000ECE6F000ECD6FD1513A
:1009E800B06FB16BCD51B05DB151800AB26FCE51CD
:1009F800800AB259D8B005D0D151CD5F000ECE5B78
:100A080004D0000ECE6F000ECD6FC8A51ED0C8C092
:100A1800B0F0030EB017D8B408D0A6C0D9FFA7C04D
:100A2800DAFF2D0EDF6EA64BA72BCD51CE11D8B411
:100A38006FD0A6C0D9FFA7C0DAFF300EDF6EA64B75
:100A4800A72BCD07D8A0CE07F0D7CD51CE11D8B45B
:100A58000FD0A6C0D9FFA7C0DAFF200EDF6EA64BC5
:100A6800A72BCD07D8A0CE07CD51CE11D8A4F1D74A
:100A7800C8C0B0F0030EB017D8B44AD0A6C0D9FF8A
:100A8800A7C0DAFF2D0EDF6E41D0CFC0B0F0D0C0C6
:100A9800B1F0D890B037B137D890B037B137330EFE
:100AA800B025F66EFF0EB121F76E0900F5CF28F0DC
:100AB8000900F5CF29F00900F5CF2AF00A00F5CF93
:100AC8002BF0C2C024F0C3C025F0C4C026F0C5C0B6
:100AD80027F082EC10F024C031F025C032F026C097
:100AE80033F027C034F00A0E356E000E366E000E55
:100AF800376E000E386EDDEC11F03150300FD16FCB
:100B0800A6C0D9FFA7C0DAFFD1C0DFFFA64BA72B2D
:100B1800CF07D8A0D007CF29B8E1D029D8A4B5D716
:100B2800A8C0F6FFA9C0F7FFA84BA92B0800F5CF6E
:100B3800D1F0D151D8A40DEF00F0A6C0D9FFA7C0BD
:100B4800DAFF000EDF6E1200866F000186AFDCD080
:100B5800866D8651800A120FD8A07BD0000E2D6EAC
:100B68000A0E2C6E000E276E640E266E8651246EB9
:100B7800256A24BE250670EC11F024C02AF025C091
:100B88002BF040EC10F0090E2A262A50030D0C0E0B
:100B9800F324F66EFF0EF420F76E0900F5CF35F05A
:100BA8000900F5CF36F00A00F5CF37F0000E2D6EAC
:100BB800640E2C6E000186512A6E2B6A2ABE2B0603
:100BC80040EC10F0120E2A262A50030D0C0EF324C6
:100BD800F66EFF0EF420F76E0900F5CF32F009002B
:100BE800F5CF33F00A00F5CF34F01CEC0DF032C02D
:100BF80083F033C084F034C085F083C032F084C001
:100C080033F085C034F0000E276E0A0E266E000100
:100C18008651246E256A24BE250670EC11F02450F6
:100C2800030D0C0EF324F66EFF0EF420F76E090088
:100C3800F5CF35F00900F5CF36F00A00F5CF37F0DB
:100C48001CEC0DF032C080F033C081F034C082F06B
:100C580012008651800A750FD8A044D0000E2D6E60
:100C68000A0E2C6E86512A6E2B6A2ABE2B0640EC81
:100C780010F0090E2A262A50030D0C0EF324F66EE6
:100C8800FF0EF420F76E0900F5CF32F00900F5CF1A
:100C980033F00A00F5CF34F0000E276E0A0E266EE8
:100CA80000018651246E256A24BE250670EC11F0D9
:100CB8002450030D0C0EF324F66EFF0EF420F76E8D
:100CC8000900F5CF35F00900F5CF36F00A00F5CF69
:100CD80037F01CEC0DF032C080F033C081F034C026
:100CE80082F012008651030D0C0EF324F66EFF0EEF
:100CF800F420F76E0900F5CF80F00900F5CF81F0F8
:100D08000A00F5CF82F012008651800A120FD8A08F
:100D18007BD0000E2D6E0A0E2C6E000E276E640E10
:100D2800266E8651246E256A24BE250670EC11F0C5
:100D380024C02AF025C02BF040EC10F0090E2A261A
:100D48002A50030DE50EF324F66EFE0EF420F76E1E
:100D58000900F5CF35F00900F5CF36F00A00F5CFD8
:100D680037F0000E2D6E640E2C6E000186512A6E2F
:100D78002B6A2ABE2B0640EC10F0120E2A262A50A7
:100D8800030DE50EF324F66EFE0EF420F76E09004F
:100D9800F5CF32F00900F5CF33F00A00F5CF34F083
:100DA8001CEC0DF032C083F033C084F034C085F001
:100DB80083C032F084C033F085C034F0000E276E53
:100DC8000A0E266E00018651246E256A24BE250669
:100DD80070EC11F02450030DE50EF324F66EFE0EB0
:100DE800F420F76E0900F5CF35F00900F5CF36F09D
:100DF8000A00F5CF37F01CEC0DF032C080F033C09C
:100E080081F034C082F012008651800A750FD8A094
:100E180044D0000E2D6E0A0E2C6E86512A6E2B6A57
:100E28002ABE2B0640EC10F0090E2A262A50030D84
:100E3800E50EF324F66EFE0EF420F76E0900F5CFEA
:100E480032F00900F5CF33F00A00F5CF34F0000E88
:100E5800276E0A0E266E00018651246E256A24BE6E
:100E6800250670EC11F02450030DE50EF324F66E00
:100E7800FE0EF420F76E0900F5CF35F00900F5CF26
:100E880036F00A00F5CF37F01CEC0DF032C080F0D8
:100E980033C081F034C082F012008651030DE50E94
:100EA800F324F66EFE0EF420F76E0900F5CF80F0FD
:100EB8000900F5CF81F00A00F5CF82F0120065EC49
:100EC80013F0000E0001D56F000ED46FA4EC15F0DE
:100ED800000EF26E000EF26ED09EF288F28A000EBC
:100EE800F16E000EF06EF086F18AF18C800ED56EF0
:100EF800000E9D6E000E9E6E000E9F6E000EA06E80
:100F0800000EA06E000EA16E000EA26EF28EF28C84
:100F1800829289EC13F0010E2C6E000E8AEC14F00C
:100F2800040081B246D0000E486E000E476E000ED7
:100F38005B6E000E5A6E55C09AF056C09BF057C0B3
:100F48009CF041C097F042C098F043C099F0D0ECB3
:100F580013F097C09DF098C09EF099C09FF044C0D0
:100F6800A0F045C0A1F046C0A2F0C3EC10F0D8A094
:100F780002D0828A1ED044C09DF045C09EF046C073
:100F88009FF055C08EF056C08FF057C090F041C00A
:100F98008BF042C08CF043C08DF0F4EC0AF08BC0AB
:100FA800A0F08CC0A1F08DC0A2F0C3EC10F0D8B0B6
:100FB800829A81B00CD00101E24BE32B050EE219B5
:100FC800E311D8A404D0000EE36F000EE26F81BADB
:100FD80017D0000E0101E76F000EE66F000EE16FFB
:100FE800000EE06F000EE56F000EE46F000E0001CA
:100FF800D56F000ED46F000E0101E36F000EE26F93
:10100800000EA8EC11F080C0F6F081C0F7F082C0A5
:10101800F8F0F6C032F0F7C033F0F8C034F0000E44
:10102800356E200E366E420E376E1CEC0DF032C057
:1010380041F033C042F034C043F0020EA8EC11F086
:1010480080C0F9F081C0FAF082C0FBF0F9C032F03C
:10105800FAC033F0FBC034F0000E356E480E366E21
:10106800430E376E1CEC0DF032C044F033C045F02F
:1010780034C046F00101E251E311D8A40FD081B683
:1010880008D06DEC12F0000E0001D56F040ED46F7D
:1010980040D081B83ED019EC13F0F5D7E205E31142
:1010A800D8A40AD081B603D010EC12F0ECD781B8DE
:1010B80030D09AEC12F0E7D7020EE219E311D8A467
:1010C8000AD081B603D0ADEC13F0DDD781B821D0BA
:1010D800A7EC14F0D8D7030EE219E311D8A40AD06C
:1010E80081B603D0F2EC12F0CED781B812D032EC30
:1010F80014F0C9D7040EE219E311D8A40AD081B6B6
:1011080003D097EC15F0BFD781B803D0BAEC15F02F
:10111800BAD7CFEC08F0E6C12CF0E7C12DF0C4EC4B
:1011280014F02C502D102E10D8A4FAD6E0C12CF0B3
:10113800E1C12DF0C4EC14F02C502D102E10D8A4C1
:10114800EFD6E4C12CF0E5C12DF056EC15F02C508B
:101158002D102E10D8A4E4D6000E0001FD6F010E4C
:10116800FC6FD5BFDDD6D55103E1D405D8A0D8D6BC
:101178008282000E256E140E246E1FEC15F08292EA
:10118800030E256EE80E246E1FEC15F00001D4073F
:10119800D8A0D507E6D7040E0101E219E311D8B4A7
:1011A80021D082AA10D0A00E0001A66F010EA76F51
:1011B800F10EA86FFF0EA96FFC0EAA6FFF0EAB6FA2
:1011C80009EC00F00FD0A00E0001A66F010EA76F6A
:1011D800F10EA86FFF0EA96FF80EAA6FFF0EAB6F86
:1011E80009EC00F082AA10D0C00E0001A66F010E13
:1011F800A76FEA0EA86FFF0EA96FFC0EAA6FFF0E6D
:10120800AB6F09EC00F047D0C00E0001A66F010ECD
:10121800A76FEA0EA86FFF0EA96FF80EAA6FFF0E50
:10122800AB6F09EC00F037D0400EA66F010EA76F28
:10123800840EA86FFF0EA96F09EC00F044D0400E91
:10124800A66F010EA76F710EA86FFF0EA96F09ECAC
:1012580000F039D0400EA66F010EA76F950EA86F4B
:10126800FF0EA96F09EC00F02ED0400EA66F010EFC
:10127800A76FA50EA86FFF0EA96F09EC00F023D089
:10128800400EA66F010EA76FC20EA86FFF0EA96FC2
:1012980009EC00F018D0E2C1D2F0E3C1D3F0D35189
:1012A800000AD8A410D0D251000AD8B4BDD7010A78
:1012B800D8B4C5D7030AD8B4CDD7010AD8B4D5D77E
:1012C800070AD8B4DDD7010E2E6E010EF1EC13F02B
:1012D800800E0001A66F010EA76F5B0EA86FFF0EB0
:1012E800A96FE4C1AAF0E5C1ABF0E0C1ACF0E1C17F
:1012F800ADF0E6C1AEF0E7C1AFF009EC00F0800E4A
:10130800326E010E336E44EC15F0020E2E6E010E95
:10131800F1EC13F0000E0001A66F010EA76FB40EDA
:10132800A86FFF0EA96F44C0AAF045C0ABF046C035
:10133800ACF009EC00F0000E326E010E336E44EC96
:1013480015F0030E2E6E010EF1EC13F0000E0001E5
:10135800A66F010EA76FCE0EA86FFF0EA96F41C032
:10136800AAF042C0ABF043C0ACF009EC00F0000EAC
:10137800326E010E336E44EC15F0020E2E6E0A0E1C
:10138800F1EC13F0A00E326E010E336E44EC15F042
:10139800030E2E6E0A0EF1EC13F0C00E326E010E23
:1013A800336E44EC15F0040E2E6E010EF1EC13F0C2
:1013B800000E0001A66F010EA76FD90EA86FFF0ED1
:1013C800A96F09EC00F0000E326E010E336E44EC8A
:1013D80015F0040E2E6E030EF1EC13F0400E326E73
:1013E800010E336E44EC15F012008A6F6D0E000189
:1013F8008A6581D0000E356E000E366E3F0E376E50
:10140800640E286E8A516DEC14F00001836F8351CD
:10141800030D360EF326000EF4220C0EF324F66E9E
:10142800FF0EF420F76E0900F5CF32F00900F5CF72
:1014380033F00A00F5CF34F01CEC0DF032C087F021
:1014480033C088F034C089F00A0E286E640E246E0A
:1014580000018A51F7EC14F06DEC14F00001836F71
:101468008351030D1B0EF326000EF4220C0EF324F9
:10147800F66EFF0EF420F76E0900F5CF35F009007F
:10148800F5CF36F00A00F5CF37F087C032F088C0C4
:1014980033F089C034F01CEC0DF032C084F033C056
:1014A80085F034C086F084C032F085C033F086C041
:1014B80034F00A0E246E00018A51F7EC14F0000192
:1014C800836F8351030D0C0EF324F66EFF0EF42088
:1014D800F76E0900F5CF35F00900F5CF36F00A00B0
:1014E800F5CF37F01CEC0DF032C080F033C081F03E
:1014F80034C082F012000A0E8A6552D0000E356E92
:10150800000E366E3F0E376E0A0E286E8A516DEC4D
:1015180014F00001836F8351030D1B0EF326000E98
:10152800F4220C0EF324F66EFF0EF420F76E090079
:10153800F5CF32F00900F5CF33F00A00F5CF34F0DB
:101548001CEC0DF032C087F033C088F034C089F04D
:1015580087C032F088C033F089C034F00A0E246E98
:1015680000018A51F7EC14F00001836F8351030DD9
:101578000C0EF324F66EFF0EF420F76E0900F5CF7B
:1015880035F00900F5CF36F00A00F5CF37F01CEC3E
:101598000DF032C080F033C081F034C082F0120008
:1015A8008A51030D0C0EF324F66EFF0EF420F76E2D
:1015B8000900F5CF32F00900F5CF33F00A00F5CF76
:1015C80034F0000E356E000E366E3F0E376E1CEC92
:1015D8000DF032C080F033C081F034C082F01200C8
:1015E8008DC091F00001926B936B8C35913701E3BC
:1015F80092819151966F90C091F0926B936B8F3559
:10160800913701E392819151956F9651D8B40AD0E0
:101618009551965DD8B00DD09651955D916F180E85
:10162800916507D08EC08BF08FC08CF090C08DF084
:1016380012009551D8B40AD09651955DD8B00DD006
:101648009551965D916F180E916507D08BC08BF000
:101658008CC08CF08DC08DF01200060E946F8DBF7B
:10166800948F90BF948D8C8FFF0E8B17FF0E8C1765
:10167800000E8D178F8FFF0E8E17FF0E8F17000E1F
:1016880090179551965DD8B01BD0D8908E378F376C
:101698009037950796519519D8B40DD0940794C0F2
:1016A80091F0070E9117D8B406D0EFD7D8908D33A4
:1016B8008C338B33962B95519619D8B41FD0F6D707
:1016C8009651955DD8B01AD0D8908B378C378D3716
:1016D800960796519519D8B40DD0940794C091F0F7
:1016E800070E9117D8B406D0EFD7D89090338F3320
:1016F8008E33952B95519619D8A4F7D794AF0CD063
:10170800FF0E8B1BFF0E8C1BFF0E8D1B010E8B27F4
:10171800000E8C23000E8D2394AD0CD0FF0E8E1B73
:10172800FF0E8F1BFF0E901B010E8E27000E8F23BE
:10173800000E9023000E946F8B518E278C518F23AF
:101748008D51902390AF0ED0FF0E8E1BFF0E8F1B76
:10175800FF0E901B010E8E27000E8F23000E902384
:10176800010E946F8EC024F08FC025F090C026F033
:1017780096C027F094C028F04DEC0FF024C08BF0F1
:1017880025C08CF026C08DF012000BC00FF0106A37
:10179800116A0A340F3601E310800F50146E0EC020
:1017A8000FF0106A116A0D340F3601E310800F50E4
:1017B800136E1450D8B40AD01350145CD8B00DD09E
:1017C8001450135C0F6E180E0F6407D00CC009F08C
:1017D8000DC00AF00EC00BF012001350D8B40AD096
:1017E8001450135CD8B00DD01350145C0F6E180E43
:1017F8000F6407D009C009F00AC00AF00BC00BF04B
:101808001200060E126E0BBE128E0EBE128C0A8EBF
:10181800FF0E0916FF0E0A16000E0B160D8EFF0E90
:101828000C16FF0E0D16000E0E161350145CD8B0D1
:101838001BD0D8900C360D360E36130614501318DC
:10184800D8B40DD0120612C00FF0070E0F16D8B478
:1018580006D0EFD7D8900B320A320932142A135027
:101868001418D8B41FD0F6D71450135CD8B01AD0B7
:10187800D89009360A360B36140614501318D8B403
:101888000DD0120612C00FF0070E0F16D8B406D0EE
:10189800EFD7D8900E320D320C32132A1350141889
:1018A800D8A4F7D712AE0CD0FF0E091AFF0E0A1AE9
:1018B800FF0E0B1A010E0926000E0A22000E0B223B
:1018C80012AC0CD0FF0E0C1AFF0E0D1AFF0E0E1ADA
:1018D800010E0C26000E0D22000E0E22000E126EB6
:1018E80009500C260A500D220B500E220EAE0ED0B7
:1018F800FF0E0C1AFF0E0D1AFF0E0E1A010E0C2603
:10190800000E0D22000E0E22010E126E0CC001F008
:101918000DC002F00EC003F014C004F012C005F0B0
:10192800A4EC0FF001C009F002C00AF003C00BF0EC
:10193800120026C02AF02B6A2C6A25342A3601E3C5
:101948002B802A50326E3250D8A409D0000E246E53
:10195800000E256E000E266E000E276E120029C09E
:101968002AF02B6A2C6A28342A3601E32B802A5065
:10197800316E3150D8B4EAD7258EFF0E2416FF0EEB
:101988002516000E2616288EFF0E2716FF0E28167F
:10199800000E2916000E2D6E000E2E6E000E2F6EF4
:1019A800000E306E7F0E325E3150980F325E180E88
:1019B800316ED8902D362E362F3630362750245C8F
:1019C8002850255829502658D8A007D02750245EDB
:1019D8002850255A2950265A2D80D8902436253645
:1019E8002636312EE6D732AE0DD03250800A970F08
:1019F800D8A0ACD7D89030322F322E322D32323E8A
:101A0800F9D70DD0170E326407D0A0D7D8902D364D
:101A18002E362F36303632063250D8A4F7D72DC09E
:101A280024F02EC025F02FC026F030C027F0120079
:101A380034C038F0396A3A6A3334383601E33980C9
:101A480038503B6E3B50D8A407D0000E326E000EC3
:101A5800336E000E346E120037C038F0396A3A6AB5
:101A68003634383601E339803850406E4050D8A4B7
:101A780007D0000E326E000E336E000E346E120068
:101A880040507B0F3B2634C040F03750401A800E40
:101A98004016338E368EFF0E3516FF0E3616000EA4
:101AA8003716000E3C6E000E3D6E000E3E6E070EA1
:101AB8003F6E32A006D035503C2636503D22375076
:101AC8003E22D890343233323232D89035363636D8
:101AD80037363F2EEED7090E3F6E32A006D035506E
:101AE8003C2636503D2237503E22D890343233328D
:101AF8003232D8903E323D323C323F2EEED73CC097
:101B080024F03DC025F03EC026F03BC027F040C081
:101B180028F04DEC0FF024C032F025C033F026C079
:101B280034F01200263427342F6E2F50D8A409D051
:101B3800000E246E000E256E000E266E000E276E17
:101B4800120029342A342E6E2E50D8B4F1D7268E9E
:101B5800FF0E2416FF0E2516FF0E2616000E27165A
:101B6800298EFF0E2716FF0E2816FF0E2916000EC7
:101B78002A16000E2A6E000E2B6E000E2C6E000E1A
:101B88002D6E7F0E2F5E2E50A00F2F5E200E2E6E14
:101B9800D8902A362B362C362D362750245C2850E0
:101BA8002558295026582A502758D8A009D02750F8
:101BB800245E2850255A2950265A2A50275A2A8006
:101BC800D89024362536263627362E2EE1D72FAE46
:101BD8000DD02F50800A9F0FD8A0AAD7D8902D32A9
:101BE8002C322B322A322F3EF9D70DD01F0E2F64FC
:101BF80007D09ED7D8902A362B362C362D362F066E
:101C08002F50D8A4F7D72AC024F02BC025F02CC019
:101C180026F02DC027F0120032C036F0376A386A35
:101C28003134363601E3378036503D6E3D50D8A406
:101C380007D0000E306E000E316E000E326E1200AC
:101C480035C036F0376A386A3434363601E33780BF
:101C580036503E6E3E50D8A407D0000E306E000EAF
:101C6800316E000E326E1200000E3A6E000E3B6EA0
:101C7800000E3C6E3E50890F3D5E32C03EF035503E
:101C88003E1A800E3E16318EFF0E3016FF0E3116AC
:101C9800000E3216348EFF0E3316FF0E3416000E69
:101CA8003516180E396ED8903A363B363C363350D6
:101CB800305C3450315835503258D8A007D03350A2
:101CC800305E3450315A3550325A3A80D8903036D6
:101CD80031363236392EE7D73AC024F03BC025F0EA
:101CE8003CC026F03DC027F03EC028F04DEC0FF078
:101CF80024C030F025C031F026C032F0120089C06F
:101D08008BF000018C6B8D6B88358B3701E38C81F0
:101D18008B51956F9551D8A409D0000E876F000E8E
:101D2800886F000E896F000E8A6F1200170E8B6F76
:101D380087C08CF088C08DF089C08EF08B298F6F9A
:101D480004D0D8908E338D338C338F2FFAD700017F
:101D58008C51906F888FFF0E8717FF0E8817000E23
:101D680089178751916F8851926F8951936F946B3E
:101D78008E0E955F95AF0DD09551800A8F0FD8A024
:101D8800CCD7D8909433933392339133953FF9D786
:101D98000DD0170E956507D0C0D7D89091379237D8
:101DA8009337943795079551D8A4F7D79051D8B45D
:101DB80008D0941F931F921F916D000E92239323B6
:101DC800942391C087F092C088F093C089F094C0A2
:101DD8008AF012000600F2A452D047044810D8B482
:101DE80008D047504810D8A448D05A505B10D8A4FF
:101DF80044D0FBEC0FF0F29455C018F056C019F01F
:101E080057C01AF041C015F042C016F043C017F091
:101E180012EC14F015C01BF016C01CF017C01DF012
:101E280044C01EF045C01FF046C020F0FEEC10F084
:101E3800D8A002D0828A1ED044C01BF045C01CF036
:101E480046C01DF055C00CF056C00DF057C00EF03E
:101E580041C009F042C00AF043C00BF0C9EC0BF0D6
:101E680009C01EF00AC01FF00BC020F0FEEC10F0F5
:101E7800D8B0829AB5EC15F00AD0F29408D0F0A048
:101E880003D088EC15F003D0F2B240EC13F05C926A
:101E980011002750D8B405D0245025102610D8A4F6
:101EA8000CD0000E246E000E256E000E266E120059
:101EB800272AD890263225322432000E2414296E7F
:101EC800000E25142A6EFE0E26142B6E29502A1099
:101ED8002B10D8B40CD0ECD7272A010E2426000EDC
:101EE8002522000E2622D890263225322432000ED2
:101EF8002414296E000E25142A6EFF0E26142B6E4C
:101F080029502A102B10D8B406D0E6D72706D89027
:101F180024362536263625BE03D0020E2760F6D78E
:101F280027A0259ED8902732275026122850D8A4BB
:101F3800268E24C024F025C025F026C026F01200E5
:101F48000450D8B405D0015002100310D8A40CD006
:101F5800000E016E000E026E000E036E1200042ABF
:101F6800D890033202320132000E0114066E000EC0
:101F78000214076EFE0E0314086E065007100810B0
:101F8800D8B40CD0ECD7042A010E0126000E022288
:101F9800000E0322D890033202320132000E0114DF
:101FA800066E000E0214076EFF0E0314086E06502C
:101FB80007100810D8B406D0E6D70406D890013622
:101FC8000236033602BE03D0020E0460F6D704A020
:101FD800029ED8900432045003120550D8A4038EF0
:101FE80001C001F002C002F003C003F01200F29435
:101FF8000101E607D8A0E707E7BF05D0E75139E1B7
:10200800E605D8B036D0000EE76F3B0EE66FE00766
:10201800D8A0E107E0292DE1E129D8A42AD0000EB3
:10202800E16F3B0EE06FE407D8A0E507E42921E162
:10203800E529D8A41ED0000EE56F000EE46F3B0E14
:10204800E619E711D8A415D03B0EE019E111D8A480
:1020580010D0E451E511D8A40CD0000EE56F000EA5
:10206800E46F000EE76F000EE66F000EE16F000EE2
:10207800E06FB5EC15F01200000E2F6E2DAE06D0F5
:102088002C6C2D1ED8B02D2A010E2F6E2BAE06D02B
:102098002A6C2B1ED8B02B2A010E2F1A000E316E77
:1020A800000E306E2C502D10D8B41CD0010E2E6EA0
:1020B80004D0D8902C362D362E2A2DAEFAD7D890AB
:1020C800303631362C502A5C2D502B58D8A005D0EC
:1020D8002C502A5E2D502B5A3080D8902D322C321D
:1020E8002E2EEDD72F50D8B404D0306C311ED8B076
:1020F800312A30C02AF031C02BF01200000E2C6EAD
:10210800000E2D6E000E2E6E000E2F6E2850291018
:102118002A102B10D8B42AD0010E306E06D0D890D1
:10212800283629362A362B36302A2BAEF8D7D890BF
:102138002C362D362E362F362850245C295025581B
:102148002A5026582B502758D8A009D02850245E4A
:102158002950255A2A50265A2B50275A2C80D89075
:102168002B322A3229322832302EE1D72CC024F0E3
:102178002DC025F02EC026F02FC027F01200000138
:102188009FAF0FD0000EA36F000EA46F800EA56F37
:102198009D51A35D9D6F9E51A4599E6F9F51A55956
:1021A8009F6FA2AF0FD0000EA36F000EA46F800E1A
:1021B800A56FA051A35DA06FA151A459A16FA25111
:1021C800A559A26F000E9D1B000E9E1B800E9F1B23
:1021D800000EA01B000EA11B800EA21BA0519D5D2E
:1021E800A1519E59A2519F59D8B002D0D89012003F
:1021F800D88012001DAE0FD0000E216E000E226E88
:10220800800E236E1B50215C1B6E1C5022581C6EC6
:102218001D5023581D6E20AE0FD0000E216E000EEB
:10222800226E800E236E1E50215C1E6E1F50225897
:102238001F6E20502358206E000E1B1A000E1C1A09
:10224800800E1D1A000E1E1A000E1F1A800E201A6C
:102258001E501B5C1F501C5820501D58D8B002D06F
:10226800D8901200D88012007C0EF66E2B0EF76EF6
:10227800000EF86E01EEE4F010EE04F00900F5CF60
:10228800EEFFE550E150FAE1540EF66E2B0EF76EB4
:10229800000EF86E00EE51F010EE0BF00900F5CFCD
:1022A800EEFFE550E150FAE10101E36BE26BE16B0F
:1022B800E06B00EED6F0280EEE6AE806FDE100EECF
:1022C80041F0100EEE6AE806FDE15C905C92000EAB
:1022D800F86E000163EF07F0000E296E25AE06D0F8
:1022E800246C251ED8B0252A010E296E27AE04D0ED
:1022F800266C271ED8B0272A26502710D8B418D005
:10230800010E286E04D0D89026362736282A27AE04
:10231800FAD72650245C27502558D8A004D0265038
:10232800245E2750255AD89027322632282EF1D7F6
:102338002950D8B404D0246C251ED8B0252A24C02E
:1023480024F025C025F012000001866F0001865197
:1023580050EC14F024C087F025C088F087C024F022
:1023680088C025F0000E276E050E266E0CEC15F0C1
:1023780024C02CF025C02DF0C4EC14F02CC030F093
:102388002DC031F02EC032F0C00E336E7F0E346E89
:10239800440E356E10EC0EF030C083F031C084F07E
:1023A80032C085F083C080F084C081F085C082F09F
:1023B80012003550361037103810D8B424D0010E1A
:1023C800396E06D0D8903536363637363836392A0B
:1023D80038AEF8D73550315C36503258375033580C
:1023E80038503458D8A008D03550315E3650325A5B
:1023F8003750335A3850345AD89038323732363208
:102408003532392EE7D731C031F032C032F033C01F
:1024180033F034C034F012000A0EE627000EE7232A
:10242800E7BF1200E75104E13B0EE65DD8A01200B9
:10243800C40EE625E66FFF0EE721E76FE04BE12BC0
:10244800E1BF1200E15104E13B0EE05DD8A01200AB
:10245800C40EE025E06FFF0EE121E16FE44BE52BB0
:10246800E55104E1090EE45DD8A01200000EE56F05
:10247800000EE46F12008E0E346E06D0D8902F3204
:102488002E322D322C32342A000E2C14306E000ECF
:102498002D14316E000E2E14326EFF0E2F14336E73
:1024A8003050311032103310D8A4E8D72CC024F0A3
:1024B8002DC025F02EC026F034C027F0000E286E5F
:1024C8004DEC0FF024C02CF025C02DF026C02EF0C6
:1024D8001200E64BE72BE7BF1200E75104E13B0E81
:1024E800E65DD8A01200C50EE625E66FFF0EE721CF
:1024F800E76FE04BE12BE1BF1200E15104E13B0E35
:10250800E05DD8A01200C40EE025E06FFF0EE121C7
:10251800E16FE44BE52BE55104E1090EE45DD8A039
:102528001200000EE56F000EE46F1200F60EE627AB
:10253800FF0EE723E7BF05D0E75124E1E605D8B051
:1025480012003C0EE625E66F000EE721E76FE00774
:10255800D8A0E107E1BF05D0E15114E1E005D8B00A
:1025680012003C0EE025E06F000EE121E16FE40768
:10257800D8A0E507E451E511D8A41200000EE56FD4
:10258800000EE46F1200316E1ED0010E2C6E000E8C
:102598008AEC14F0000E256E020E246E1FEC15F066
:1025A8001200020E2E6E010EF1EC13F01200100E46
:1025B8002C6E000E8AEC14F0120031C02CF0010EC3
:1025C8008AEC14F012003150080AD8B4F0D7020A85
:1025D800D8B4E7D7060AD8B4D8D7EFD70A0EE02779
:1025E800000EE123E1BF1200E15104E13B0EE05D82
:1025F800D8A01200C40EE025E06FFF0EE121E16FC4
:10260800E44BE52BE55104E10A0EE45DD8A0120085
:10261800000EE76F000EE66F000EE16F000EE06F30
:10262800000EE56F000EE46F1200E607D8A0E7077A
:10263800E7BF05D0E7511FE1E605D8B01200000E4C
:10264800E76F3B0EE66FE007D8A0E107E02913E14A
:10265800E129D8A41200000EE16F3B0EE06FE407F9
:10266800D8A0E507E42907E1E529D8A41200000E5F
:10267800E56F090EE46F1200F292A00E56180CE1F5
:10268800400E57185510D8A407D0000E556E000EEE
:10269800566E000E576E120055C009F056C00AF06B
:1026A80057C00BF0000E0C6E000E0D6E3F0E0E6E36
:1026B800C9EC0BF009C055F00AC056F00BC057F032
:1026C8001200010EC26E0C0EC16E9368800E946EDD
:1026D800000E826E9268000E956E000E966E9480C3
:1026E800829A000E0101E76F000EE66F000EE16F9F
:1026F800000EE06F000EE56F000EE46FD09EF28AC8
:10270800D58EF288B0EC15F0120084948492000EF5
:10271800256E190E246E1FEC15F0010E2E6E030E99
:1027280068EC15F02E2A030E2E64F9D7020E68EC19
:1027380015F0000E2E6E2E50510FD96EDA6ADF504A
:102748002C6E000E8AEC14F02E2A030E2E64F3D79A
:102758001200E04BE12BE1BF1200E15104E13B0E16
:10276800E05DD8A01200000EE16F000EE06FE44BB0
:10277800E52BE55104E10A0EE45DD8A01200000E35
:10278800E76F000EE66F000EE16F000EE06F000EBF
:10279800E56F000EE46F120000019A519B119C1125
:1027A800D8B406D0000E9A1B000E9B1B800E9C1BF3
:1027B80097C08BF098C08CF099C08DF09AC08EF0BD
:1027C8009BC08FF09CC090F0F4EC0AF08BC097F09F
:1027D8008CC098F08DC099F012002F6E09D0800E31
:1027E80005D0C00E03D0900E01D0D00E306E0DD0A3
:1027F8002E50010AD8B4F3D7030AD8B4F2D7010A85
:10280800D8B4F1D7070AD8B4F0D72F0430263050FF
:1028180080092C6E000E8AEC14F012001850191062
:102828001A10D8B406D0000E181A000E191A800E05
:102838001A1A15C009F016C00AF017C00BF018C014
:102848000CF019C00DF01AC00EF0C9EC0BF009C05D
:1028580015F00AC016F00BC017F01200F60EE027AC
:10286800FF0EE123E1BF05D0E15115E1E005D8B045
:1028780012003C0EE025E06F000EE121E16F000E32
:10288800E56F000EE46FE451E511D8A41200000EC4
:10289800E56F000EE46F1200286E28C026F0264669
:1028A8002646C2502618C30B2618C26EC282C2B270
:1028B800FED7C350C4CF26F0276A26C027F0266A61
:1028C8002610296E27502A6E29C024F02AC025F028
:1028D8001200296E000E2B6E2850D8B415D0010EA8
:1028E8002A6E03D0D89028362A2A28AEFBD7D8904B
:1028F8002B362850295CD8A003D02850295E2B807D
:10290800D89028322A2EF3D72B5012002D6E2DB0D6
:1029180002D0849401D08484010EE0EC14F0010EFE
:10292800E0EC14F084922C380F0B68EC15F02C5066
:102938000F0B68EC15F02D50D8B41200320E0400BD
:10294800E82EFDD71200E007D8A0E107E1BF05D0C7
:10295800E15115E1E005D8B012003C0EE025E06F2A
:10296800000EE121E16F000EE56F000EE46FE45107
:10297800E511D8A41200000EE56F000EE46F1200F6
:10298800000E2F6E2DAE06D02C6C2D1ED8B02D2A21
:10299800010E2F6E2CC024F02DC025F0266A8E0E55
:1029A800276E2FC028F04DEC0FF024C02CF025C066
:1029B8002DF026C02EF01200276E000E296E000E94
:1029C800286E03D00400284A292A2750246E256A35
:1029D8002850245C2550800A266E2950800A2658E3
:1029E800D8A01200EFD7256E080E266E000E276EAF
:1029F800D89025342734276ED89025362450275C64
:102A0800D8A002D02450275E262EF2D727501200D5
:102A180024502602F3CF28F0F4CF29F024502702BF
:102A2800F350292625502602F350292628C024F0E1
:102A380029C025F01200000E276E000E266E07D062
:102A4800C80E04000400E82EFCD7264A272A245082
:102A5800265C25502758D8B01200F2D724502510EC
:102A68002610D8B406D0000E241A000E251A800E9F
:102A7800261A24C024F025C025F026C026F012000E
:102A880009D032C0D9FF33C0DAFFDF50C7EC12F0EB
:102A9800324A332A32C0D9FF33C0DAFFDF50D8B404
:102AA8001200EFD72CC024F02DC025F0266A8E0E18
:102AB800276E000E286E4DEC0FF024C02CF025C0B8
:102AC8002DF026C02EF012002B6E2BC02AF02A3AC9
:102AD80083502A180F0B2A18836E010EE0EC14F0AD
:102AE8008482040000F084921200266E000E256E87
:102AF8003A0E266005D02F0E266402D0010E256EF0
:102B080025C024F024301200F090050E0101E219CE
:102B1800E311D8A405D0000EE36F000EE26F120097
:102B2800E24BE32B1200E44BE52BE55104E10A0EDE
:102B3800E45DD8A01200000EE56F000EE46F1200ED
:102B4800000EC26EC280890EC06E1200280C0106EB
:072B580000803F04000100B2
:102B60000B0EB36EDC0EB26E12000B0EB36EDC0EEB
:102B7000B26E1200E407D8A0E507120001001400AD
:10FEE4000000803F00204100C842007A44401C4684
:10FEF40050C34724744997184BBCBE4C6B6E4E03D9
:10FF0400155079AD60F3497100803FCDCC3DD723C6
:10FF14003C12833AB7D138C62737388635C0D63332
:10FF2400CC2B32708930E7DB2EE53C1E42A20D015A
:10FF34000000000A00000064000000E80300001054
:10FF4400270000A086010040420F00809698000020
:10FF5400E1F50500CA9A3B54696D65203A202530C5
:10FF640032643A253032643A25303264002020313C
:10FF74003020534543202020202020202020200012
:10FF840020205345432020202020202020202020F2
:10FF94000020204D494E20202020202020202020F9
:10FFA4000020203130204D494E20202020202000E8
:10FFB400544D503A25332E31664320202000202012
:10FFC400484F55522020202020005350203A2533FA
:10FFD4002E316643004D44203A2020202020002862
:10FFE4006E756C6C290020434B3A257300204854ED
:0CFFF4003A2573004F4646004F4E0000B7
:020000040020DA
:08000000FFFFFFFFFFFFFFFF00
:020000040030CA
:0E000000FF011F1FFF8385FF0FC00FE00F40A1
:00000001FF
